:020000040800F2
:10000000F006002089010008150900081B060008F9
:1000100011090008C903000897100008000000003B
:10002000000000000000000000000000410D00087A
:10003000CD030008000000000B0C0008550E00085E
:10004000A3010008A3010008A3010008A301000800
:10005000A3010008A3010008A3010008A3010008F0
:10006000A3010008A3010008A3010008A3010008E0
:10007000A3010008A3010008A3010008A3010008D0
:10008000A3010008A3010008A3010008A3010008C0
:10009000A3010008A3010008A3010008A3010008B0
:1000A000A3010008A3010008A3010008A3010008A0
:1000B000A3010008A3010008A3010008A301000890
:1000C000A3010008A3010008A3010008A301000880
:1000D000A3010008B90E0008A3010008A30100084D
:1000E000A3010008A3010008A301000800F002F822
:1000F00000F03AF80AA090E8000C82448344AAF188
:100100000107DA4501D100F02FF8AFF2090EBAE885
:100110000F0013F0010F18BFFB1A43F0010318473B
:10012000CC1F0000EC1F0000103A24BF78C878C133
:10013000FAD8520724BF30C830C144BF04680C60ED
:10014000704700000023002400250026103A28BF35
:1001500078C1FBD8520728BF30C148BF0B60704739
:100160001FB51FBD10B510BD00F031F81146FFF7E7
:10017000F7FF01F04BF800F04FF803B4FFF7F2FF80
:1001800003BC00F057F800000948804709480047C1
:10019000FEE7FEE7FEE7FEE7FEE7FEE7FEE7FEE737
:1001A000FEE7FEE704480549054A064B7047000094
:1001B000590E0008ED000008F0000020F0060020B5
:1001C000F0020020F002002070477047704775462B
:1001D00000F02CF8AE4605006946534620F00700B3
:1001E000854618B020B5FFF7DDFFBDE820404FF091
:1001F00000064FF000074FF000084FF0000B21F011
:100200000701AC46ACE8C009ACE8C009ACE8C009DD
:10021000ACE8C0098D46704710B50446AFF30080C6
:100220002046BDE81040FFF7A8BF00000048704717
:100230009000002001491820ABBEFEE72600020016
:1002400070472DE9F04107460D461446002607E0A9
:1002500035F81610384600F020FF761C601E84B278
:10026000002CF5D1BDE8F0812DE9FF4107460024BF
:1002700000260025AA222146641C524820F811209D
:100280002146641C20F81120F1222146641C20F82C
:10029000112000222146641C20F811209DF8052021
:1002A0002146641C20F811209DF804202146641C7E
:1002B00020F811209DF809202146641C20F8112007
:1002C0009DF808202046611CCCB23E4921F8102040
:1002D0009DF80D202146601CC4B23A4820F8112038
:1002E0009DF80C202046611CCCB2364921F8102024
:1002F0009DF829202046611CCCB2324921F81020FB
:100300009DF828202046611CCCB22E4921F81020EF
:100310009DF82D202046611CCCB22A4921F81020DE
:100320009DF82C202046611CCCB2264921F81020D3
:100330009DF831202046611CCCB2224921F81020C2
:100340009DF830202046611CCCB21E4921F81020B7
:100350009DF835202046611CCCB21A4921F81020A6
:100360009DF834202046611CCCB2164921F810209B
:100370009DF839202046611CCCB2124921F810208A
:100380009DF838202046611CCCB20E4921F810207F
:10039000201FC88000BF00BF06E00A4810F8150003
:1003A0003044C6B2681CC5B2A542F6DB2046611CCB
:1003B000CCB2044921F8106022463846FFF741FFCD
:1003C000BDE8FF812C00002000BFFEE77047000061
:1003D00010B56FF0040000F029FD0A4800680A49D2
:1003E000B0FBF1F0094908700846007800EB4001C5
:1003F000C1EBC0104FF6FF7101EAC000044908804C
:1004000010BD00001400002000127A002800002017
:100410002A0000200146114A12884A434FF0E02387
:100420005A6100229A611A46126942F001021A6169
:1004300000BF4FF0E022106900F001021AB100F491
:100440008032002AF5D04FF0E022126922F001023A
:100450004FF0E0231A6100229A6170472A000020C1
:100460002DE9F0410246002500260020002300244B
:10047000002791F803C00CF00F0591F803C00CF0B1
:10048000100CBCF1000F03D091F802C04CEA050536
:1004900091F800C0BCF1000F31D0146800202BE0AF
:1004A0004FF0010C0CFA00F3B1F800C00CEA03069F
:1004B0009E4220D183004FF00F0C0CFA03F7BC438F
:1004C00005FA03FC4CEA040491F803C0BCF1280FC0
:1004D00006D14FF0010C0CFA00FCC2F814C00AE07F
:1004E00091F803C0BCF1480F05D14FF0010C0CFA94
:1004F00000FCC2F810C0401C0828D1D31460B1F829
:1005000000C0BCF1FF0F34DD546800202EE000F184
:10051000080C4FF0010808FA0CF3B1F800C00CEA1F
:1005200003069E4221D183004FF00F0C0CFA03F713
:10053000BC4305FA03FC4CEA040491F803C0BCF187
:10054000280F05D100F1080C08FA0CF8C2F8148045
:1005500091F803C0BCF1480F07D100F1080C4FF02F
:10056000010808FA0CF8C2F81080401C0828CED305
:100570005460BDE8F0810000F0B50A460023002475
:100580000021002500F00046B6F1004F02D11D4EBB
:10059000F16901E01B4E7168C0F3034583B200F4BA
:1005A0004016B6F5401F08D121F07061154E7668EF
:1005B00026F07066134F7E6012E000F48016B6F5E8
:1005C000801F06D1032606FA05F4A14341F07061AD
:1005D00006E0460D360103FA06F6B14341F07061BC
:1005E00022B1460D360103FA06F6314300F000460B
:1005F000B6F1004F02D1034EF16101E0014E71608E
:10060000F0BD0000000001400246002093680B404E
:100610000BB1012000E00020704700BFFEE770B57D
:1006200002460024002500230020958A138B1B041A
:1006300045EA030626F07F4404EA01068E4201D112
:10064000012000E0002070BD21B1028842F00102CB
:10065000028004E002884FF6FE731A400280704761
:1006600000B585B00121880500F0D0FA01210820ED
:1006700000F0ECFA4FF44060ADF8000003208DF874
:1006800002001C208DF8030069461148FFF7E8FEC0
:10069000104800F023F80020ADF808004BF6FF707A
:1006A000ADF80A003020ADF80C004FF48060ADF8D2
:1006B0000E000001ADF81000074801900121054827
:1006C000FFF7C2FF01A9034800F05AF805B000BDCA
:1006D000000C014000580040801A060010B5044686
:1006E0000B48844209D10121480500F09FFA0021FE
:1006F0004FF4001000F09AFA08E00121880500F09C
:1007000095FA00214FF4800000F090FA10BD00002F
:100710000054004021B1028842F48072028004E05B
:1007200002884FF6FF631A400280704721B10288A9
:1007300042F40072028004E002884FF6FF531A4030
:10074000028070470CB502460020002301930093FD
:1007500000920B0F019321F07F41019B1BB1009B85
:100760001433009303E0090C009B18330093009BA3
:100770001B680B400BB1012000E000200CBD000005
:100780002DE9F04385B004460D460026B146042706
:10079000DFF8CC80A6884FF6C0700640684600F0AF
:1007A00065FADDF808802F48B8FBF0F01FFA80F9F1
:1007B00046EA0906A68020884FF6FE710840208090
:1007C00000262949286888420CD828684000B8FBD0
:1007D000F0F087B2042F00DA04273E4309F101004C
:1007E000208427E0E8884BF6FF71884206D128680C
:1007F00000EB4000B8FBF0F087B209E0286800EB9E
:10080000C00101EB0010B8FBF0F087B247F480475D
:10081000C7F30B0008B947F0010747F4004006434F
:100820004FF4967009FB00F04FF47A7190FBF1F0F1
:10083000401C2084A683208840F001002080268868
:100840004FF6F5300640A88869890843064326809C
:10085000A88929890843208105B0BDE8F0830000FC
:1008600000127A0040420F00A086010012B141F050
:10087000010102E04FF6FE731940018270470182C8
:100880007047000070B504460D4600BF4FF40031BC
:100890001C48FFF757FF0028F8D101211948FFF73E
:1008A00039FF00BF18491748FFF7B9FE0028F9D0F3
:1008B000002278211348FFF7D9FF00BF13491148E0
:1008C000FFF7ADFE0028F9D021460E48FFF7D7FF0D
:1008D00000BF0E49891C0B48FFF7A1FE0028F8D085
:1008E00029460848FFF7CBFF00BF0849891C054887
:1008F000FFF795FE0028F8D001210248FFF716FF08
:1009000070BD000000580040010003008200070095
:1009100000BFFEE77047000070B5002100230F22E2
:10092000C47804B3154C246804F4E064C4F5E064AE
:10093000210AC1F10403CA40447804FA03F184781F
:100940001440214309010E4C0678A155047804F0A7
:100950001F050124AC4005786D11AD0005F1E025BF
:10096000C5F8004109E0047804F01F050124AC40FB
:10097000044D0678761145F8264070BD0CED00E078
:1009800000E400E080E100E002490143024A116016
:10099000704700000000FA050CED00E010B50020E3
:1009A00000F001F810BD70B50646002415E004F112
:1009B000B001C8B200F080FB002000F07DFB1020E9
:1009C00000F07AFB002504E0304600F07CFB681C58
:1009D000C5B2802DF8DB601CC4B2082CE7DB70BD0B
:1009E00010B5FFF73DFE6420FFF714FDAE2000F0C8
:1009F00063FB202000F060FB102000F05DFBB020C6
:100A000000F05AFBC82000F057FB002000F054FB18
:100A1000102000F051FB402000F04EFB812000F040
:100A20004BFBFF2000F048FBA12000F045FBA62077
:100A300000F042FBA82000F03FFB3F2000F03CFB11
:100A4000A42000F039FBD32000F036FB002000F09A
:100A500033FBD52000F030FBF02000F02DFBD92037
:100A600000F02AFB222000F027FBDA2000F024FB14
:100A7000122000F021FBDB2000F01EFB202000F004
:100A80001BFB8D2000F018FB142000F015FBAF209D
:100A900000F012FB10BD70B504460D4605F1B00123
:100AA000C8B200F009FB102141EA141000F004FB69
:100AB00004F00F0141F0010000F0FEFA70BD0000EB
:100AC0002DE9F0470646894617469A464FF000083A
:100AD00000240025BAF1010F03D0BAF1020F5ED154
:100AE00025E020E0785D203800F0FF087E2E04DD50
:100AF000002609F1010000F0FF0949463046FFF7E2
:100B0000CAFF002409E008EB4801264A02EB410134
:100B1000085D00F0D8FA601CC4B2062CF3DBB01DEF
:100B2000C6B2681CC5B2785D0028DBD137E032E080
:100B3000785D203800F0FF08782E04DD002609F1EA
:100B4000010000F0FF0949463046FFF7A4FF0024EA
:100B500007E004EB0811144A505C00F0B4FA601C82
:100B6000C4B2082CF5DB09F10100C1B23046FFF731
:100B700092FF002408E004EB081108310A4A505C97
:100B800000F0A1FA601CC4B2082CF4DB06F10800E6
:100B9000C6B2681CC5B2785D0028C9D100BF00BFCD
:100BA000BDE8F087D4180008FC1A00082DE9FC47BE
:100BB0000746884614469946062500200DF805008C
:100BC000681E85B2002C04DA64422D208DF80000E6
:100BD00002E020208DF800000DE00A2094FBF0F1E7
:100BE00000FB11403030C6B20A2094FBF0F40DF83F
:100BF0000560681E85B2002DEFD101236A4641468B
:100C00003846FFF75DFFBDE8FC87704729B1064A0B
:100C1000D2690243044BDA6104E0034AD269824399
:100C2000014BDA61704700000010024029B1064A0A
:100C300012690243044B1A6104E0034A12698243B9
:100C4000014B1A61704700000010024029B1064AAA
:100C500092690243044B9A6104E0034A9269824319
:100C6000014B9A61704700000010024030B500212E
:100C70000022002400232D4D6D6805F00C0121B1E8
:100C8000042905D0082923D105E0294D056022E07B
:100C9000274D05601FE0254D6D6805F47012234D4A
:100CA0006D6805F48034022505EB92421CB9214D94
:100CB000554305600BE01D4D6D6805F400351DB111
:100CC0001C4D5543056002E0194D5543056002E097
:100CD000174D056000BF00BF144D6D6805F0F001B1
:100CE0000909154D6B5C0568DD4045600F4D6D6869
:100CF00005F4E061090A104D6B5C4568DD408560D4
:100D00000A4D6D6805F46051C90A0B4D6B5C45686E
:100D1000DD40C560054D6D6805F44041890B074D08
:100D20006B5CC568B5FBF3F5056130BD0010024092
:100D300000127A0000093D00000000201000002091
:100D4000704710B500F002F810BD00000CB500208F
:100D5000019000903348006840F4803031490860C9
:100D600000BF3048006800F4003000900198401C3B
:100D70000190009818B90198B0F5A06FF1D12948F9
:100D8000006800F4003010B10120009001E0002064
:100D900000900098012843D12348006840F01000DB
:100DA000214908600846006820F0030008600846F2
:100DB000006840F0020008601A484068194948601D
:100DC0000846406848600846406840F480604860D3
:100DD0000846406820F47C1048600846406840F4AB
:100DE000E81048600846006840F08070086000BF66
:100DF0000C48006800F000700028F9D009484068ED
:100E000020F00300074948600846406840F00200AF
:100E1000486000BF0348406800F00C000828F9D182
:100E20000CBD00000010024000200240042808D140
:100E30004FF0E021096941F004014FF0E022116117
:100E400007E04FF0E021096921F004014FF0E022B2
:100E5000116170477047000010B51348006840F0FA
:100E600001001149086008464068104908400E49D1
:100E70004860084600680E4908400B49086008466B
:100E8000006820F4802008600846406820F4FE00D6
:100E900048604FF41F008860FFF753FF4FF0006079
:100EA0000449086010BD0000001002400000FFF877
:100EB000FFFFF6FE08ED00E010B540F225510648B0
:100EC00000F025F838B1044800F0DCF8C4B221463F
:100ED000014800F0DCF810BD0038014021B18289E2
:100EE00042F40052828104E082894DF6FF731A4079
:100EF0008281704702460020B1F5007F00D100BF1B
:100F000013880B400BB1012000E00020704770B542
:100F10000246002400230025002040F66A16B14254
:100F200000D100BFC1F3421501F01F03012606FAEC
:100F300003F3012D02D19689334006E0022D02D140
:100F4000168A334001E0968A33400C12012606FAD5
:100F500004F41688344013B10CB1012000E00020E5
:100F600070BDF0B50346002400260025002040F6A1
:100F70006A17B94200D100BF1846C1F3421401F00C
:100F80001F06012707FA06F5012C01D10C3004E0F9
:100F9000022C01D1103000E014301AB107682F4341
:100FA000076002E00768AF430760F0BD2DE9F04736
:100FB00086B005460E460024A24600BFA146002783
:100FC000B08900B100BF2F462C8A4CF6FF70044058
:100FD000F08804432C82AC894EF6F3100440B088AC
:100FE00031890843718908430443AC81AC8A4FF6C8
:100FF000FF400440B0890443AC8201A8FFF736FEED
:101000001F48874202D1DDF810A001E0DDF80CA0F6
:10101000A88900F4004040B10AEBCA0000EB0A10B6
:1010200031684900B0FBF1F807E00AEBCA0000EBB9
:101030000A1031688900B0FBF1F86420B8FBF0F0C9
:1010400004012009642101FB1089A88900F40040F3
:1010500040B1322000EBC900B0FBF1F000F0070016
:10106000044308E0322000EB09106421B0FBF1F0EA
:1010700000F00F0004432C8106B0BDE8F0870000AB
:101080000038014001468888C0F308007047C1F36A
:1010900008028280704700BFFEE770B504460D4627
:1010A00029462046FFF7F3FF00BF80212046FFF7C7
:1010B00021FF0028F9D070BD10B50446214600205C
:1010C000FFF7E0FB10BD10B5044621464020FFF7B6
:1010D000D9FB10BD00B587B001210820FFF7B6FD90
:1010E00001218803FFF7B2FD4020ADF8180003206E
:1010F0008DF81A0018208DF81B0006A92448FFF768
:10110000AFF98020ADF8140003208DF816000420FC
:101110008DF8170005A91E48FFF7A2F94FF4E1303A
:1011200001900020ADF80800ADF80A00ADF81000FD
:10113000ADF80C000C20ADF80E004FF4A060FFF7E6
:1011400023FC25208DF8000002208DF801008DF889
:10115000020001208DF803006846FFF7DDFB01A9BE
:101160000C48FFF723FF012240F225510948FFF701
:10117000F8FE01210748FFF7B1FE01210846FFF7FD
:1011800065FD01210420FFF7F7F907B000BD00005D
:10119000000C01400038014008B501210820FFF78C
:1011A00055FD1020ADF8000003208DF80200482006
:1011B0008DF8030069460248FFF752F908BD0000A8
:1011C000000C014010B5002410210448FFF71CFA60
:1011D00004460CB9012010BD0020FCE7000C0140C2
:1011E00008B501211020FFF731FD4FF40050ADF894
:1011F000000003208DF8020010208DF803006946DE
:101200000148FFF72DF908BD001001408EB04FF0E6
:10121000000B00BF0A24A1460A200D900C900B90F1
:101220000A90099008904FF0000AFFF7D1F8FFF7F5
:10123000D7FFFFF7B1FFFFF74DFFFFF7D1FB4FF4EB
:101240007A70FFF7E7F8FFF7A9FB01232EA21946F2
:101250000020FFF735FC01232CA202210020FFF71C
:101260002FFC50E0FFF7AEFF30B16FEA0B0000F04B
:10127000FF0B04F10A0004B2504600F02CF90546B9
:10128000244A254B00F03EF9CDE90401A4EB090006
:1012900000F021F90746214A214B00F033F90546B9
:1012A0000E46484600F017F92A463346CDE90001BC
:1012B00000F03AF8CDE90201DDE9042300F034F84A
:1012C000CDE9060100F0D8F80FFA80F9A4EB090087
:1012D0008244BAF57A7F01DB4FF0000A01232246EF
:1012E00002213220FFF762FC08A80BC80B9ACDE957
:1012F0000123CDE903100C9800904A462146094885
:101300000D9BFEF7B1FFADE76F6B21006461746167
:10131000313A00007B14AE47E17A843FB81E85EB7A
:1013200051B89E3F0038014010B591EA030F48BF05
:1013300083F0004300F1EC81841A71EB030C05D2B9
:10134000121943EB0C03001B61EB0C01DFF824E1E5
:101350004FEA1154A4EB135C1EEA430F18BF9EEA38
:10136000445F73D023EA0E03DCF1200E21EA04511E
:1013700043F4801332D322FA0CFE10EB0E0023FA52
:101380000CFE41EB0E01CCF1200E03FA0EFE10EB29
:101390000E0051F10001B1F5801FCCF1200E32D2C8
:1013A00001EB045112FA0EF2BDE8104058BF70472D
:1013B000401C38BF5FEA420218BF7047002814BFC4
:1013C00020F0010041F100014FEA410313F5001F35
:1013D00038BF7047A1F1C04100F08CB9012A43EB3E
:1013E0000302ACF1200CDCF11F0E32BF4FF0000EF7
:1013F00023FA0CF310EB030041EB0451B4EB115F43
:10140000D0D0A1EB045101F5801149085FEA30000A
:1014100001EB04510ED350F1000038BF12FA0EFE5A
:1014200008D1BDE81040C9E7401C38BF5FEA42025E
:10143000CAD1C3E7BDE810404FEA410313F5001FCE
:1014400038BF7047A1F1C04100F054B99EEA445F33
:1014500008D011EA5E0FBDE8104004BF01F0004162
:1014600000207047BDE8104070B500F0F5F800BFEF
:1014700064FBBE3E0000E0FF4FEA41034FEA5353D6
:10148000A3F58063D3F11E03C8BFD3F1210C0CDD9B
:101490004FF0004242EAC12242EA505232FA03FCC3
:1014A0008CEAE17CACEBE1707047102BC4BF0020EC
:1014B000704703F5787CBCF1FF3F04D06FF0004229
:1014C00082EA2100704770B500F0C6F84992248086
:1014D00000207047F2E710F0004248BF4042B0FAE7
:1014E00080F310FA03F10AD0C3F11D0303F5806302
:1014F0004FEA415002EB035202EBD12170474FF00B
:1015000000007047DFF848C170B51CEA111E1EBF0D
:101510001CEA13159EEA0C0F95EA0C0F00F06F8081
:1015200081EA030423EA4C134EEAD47E21EA4C11EB
:1015300041F4801143F48013AE44A1FB024CA0FBA4
:101540000365AEF17F7E361955EB0C05A1FB034C0C
:101550004CF10003A0FB021C16EB0C06654153F195
:101560000003094218BF46F0010613F4007F0BD1B7
:101570004FEA03314FEA0530340341EA155140EA9E
:1015800016506FF003020AE04FEAC3214FEAC5206C
:10159000F40241EA555140EA56506FF0020202EB64
:1015A0002E4201EB025585EACE710AD05FEA440C67
:1015B00018BF24F0004450F1000041F1000120EA7E
:1015C000D47040F2FE7C624500D270BDA84214BFC8
:1015D0004FF080444FF04044002E08BF0024BEF17D
:1015E000806FA8BFA1F1C041BDE8704080F2828049
:1015F0004FF0000001F1C04101F0004170479EEA48
:101600000C0F0CEA131518BF95EA0C0F06D04FF01B
:10161000000081EA030E0EF0004170BD00F01CF8DE
:101620008900013E00F007B800F009B84FEA430C0A
:101630005FEA5C5C08D081EA030100F05BB84FEA26
:10164000410C5FEA5C5CF6D14FF000000149704745
:101650000000FF070000F87F0EF1020E2EF0030ECF
:101660005EF8046B364205D4012A43EB030515F5F9
:10167000001F12D8012841EB010C1CF5001F0CD8EB
:101680000ED14FEAD17C15F5001F0CEB4C0C0CF180
:10169000020C08BF4CEBD37C04E04FF0080C01E0D7
:1016A0004FEAD37C0CEB4C0526FA05F606F007064C
:1016B000B6F1040C06D20EEB860CBDE870404CF07F
:1016C000010C6047DFE80CF0090B02024FF000410B
:1016D0004FF00000A1F5002170BD19461046012809
:1016E00051EB010418BFD4F5001484BF002001F0B1
:1016F000004170BD0808A0F500114FEA31017047A4
:1017000010B591EA030F48BF83F000433FF514AED4
:10171000841A71EB030C07D212198CF0004C43EBC6
:101720000C03001B61EB0C01DFF8A4E14FEA11543C
:10173000A4EB135C1EEA430F18BF9EEA445F00F05F
:10174000B08023EA6E03524221EA0451C3EB6E03D8
:1017500038BF5B1EDCF1200E25D322FA0CFE10EB05
:101760000E0043FA0CFE41EB0E01CCF1200E03FA01
:101770000EFE10EB0E0051F10001CCF1200E29D429
:1017800012FA0EF201EB0451BDE8104058BF704749
:10179000401C1CBFB2F1004F704700280CBF491C11
:1017A00020F00100704712EB020E43EB030218BF5A
:1017B0004FF0010E4EEA4202ACF1200CDCF11E0E9D
:1017C00054D943FA0CFE10EB0E0051F1FF31CCF16D
:1017D0001E0ED5D50EF1010E12FA0EFE404141EB60
:1017E000010101EB445C5FEA5C5C10D910EBDE7038
:1017F00001EB045138BFBEF1004FBDE8104018BFE7
:10180000704700280CBF491C20F00100704730D2FF
:101810004FEAD42C11F5001124F400641BD0B1FA66
:1018200081F20B3AA41AA41ED2F12003914030FA9F
:1018300003F31943904001EBCC71002C01EB0451F0
:10184000BDE81040A8BF704701F1C0414FF0000053
:1018500001F000417047B0FA80F310FA03F100D1B3
:1018600010BDE41A173C4805C90AE4E701EB04512E
:1018700010BD491001EB0451BDE810404FEA3000A3
:1018800002E04FF0000170474A0008BF0042F8D064
:10189000B2F5001F28BF704701F000414FF0000073
:1018A00070479EEA445F07D011EA5E0FBDE8104022
:1018B00004BF002100207047BDE8104070B5FFF75D
:1018C000CBFE00BF40DFF63E83F00041104670477C
:1018D0000000E0FF0000000000000000002F0000FA
:1018E00000000700070000147F147F1400242A7FE3
:1018F0002A12006264081323003649552250000062
:101900000503000000001C224100000041221C00D1
:101910000014083E08140008083E0808000000A053
:10192000600000080808080800006060000000204F
:1019300010080402003E5149453E0000427F40002D
:10194000004261514946002141454B3100181412B3
:101950007F10002745454539003C4A494930000180
:101960007109050300364949493600064949291ECF
:101970000000363600000000563600000008142231
:101980004100001414141414000041221408000231
:101990000151090600324959513E007C1211127C56
:1019A000007F49494936003E41414122007F414183
:1019B000221C007F49494941007F09090901003E75
:1019C0004149497A007F0808087F0000417F4100B3
:1019D000002040413F01007F08142241007F404029
:1019E0004040007F020C027F007F0408107F003E11
:1019F0004141413E007F09090906003E4151215EF7
:101A0000007F091929460046494949310001017FF3
:101A10000101003F4040403F001F2040201F003F89
:101A20004038403F0063140814630007087008073B
:101A300000615149454300007F41410000552A554E
:101A40002A55000041417F000004020102040040C9
:101A500040404040000001020400002054545478EB
:101A6000007F48444438003844444420003844440B
:101A7000487F00385454541800087E0901020018A9
:101A8000A4A4A47C007F080404780000447D4000E6
:101A9000004080847D00007F102844000000417FCA
:101AA0004000007C04180478007C080404780038A6
:101AB0004444443800FC242424180018242418FC2E
:101AC000007C0804040800485454542000043F4497
:101AD0004020003C4040207C001C2040201C003C5A
:101AE0004030403C004428102844001CA0A0A07CAA
:101AF000004464544C4414141414141400000000E2
:101B0000000000000000000000000000000000F8DD
:101B100000000000000000333000000000100C0640
:101B2000100C0600000000000000000040C07840DB
:101B3000C0784000043F04043F040400007088FCA7
:101B400008300000001820FF211E0000F008F000FF
:101B5000E018000000211C031E211E0000F0088870
:101B6000700000001E2123241927211010160E00DA
:101B7000000000000000000000000000000000E085
:101B8000180402000000000718204000000204189A
:101B9000E00000000040201807000000404080F0F6
:101BA000804040000202010F01020200000000F02C
:101BB000000000000101011F010101000000000000
:101BC0000000000080B07000000000000000000075
:101BD00000000000000101010101010100000000FE
:101BE0000000000000303000000000000000000095
:101BF00080601804006018060100000000E0100872
:101C00000810E000000F102020100F00001010F846
:101C1000000000000020203F202000000070080885
:101C20000888700000302824222130000030088805
:101C3000884830000018202020110E000000C0202D
:101C400010F8000000070424243F240000F808884E
:101C5000880808000019212020110E0000E01088DB
:101C600088180000000F112020110E00003808080D
:101C7000C83808000000003F00000000007088081D
:101C800008887000001C222121221C0000E010089E
:101C90000810E0000000312222110F00000000C0F7
:101CA000C000000000000030300000000000008094
:101CB0000000000000008060000000000000804084
:101CC000201008000001020408102000404040409D
:101CD00040404000040404040404040000081020F0
:101CE0004080000000201008040201000070480835
:101CF0000808F0000000003036010000C030C8289D
:101D0000E810E0000718272423140B000000C03857
:101D1000E0000000203C23020227382008F88888D1
:101D200088700000203F202020110E00C0300808DD
:101D300008083800071820202010080008F80808B4
:101D40000810E000203F202020100F0008F88888AD
:101D5000E8081000203F20202320180008F8888879
:101D6000E8081000203F200003000000C0300808F1
:101D70000838000007182020221E020008F808007A
:101D80000008F808203F210101213F20000808F841
:101D9000080800000020203F202000000000080864
:101DA000F8080800C08080807F00000008F888C024
:101DB00028180800203F20012638200008F80800D5
:101DC00000000000203F20202020300008F8F8000C
:101DD000F8F80800203F003F003F200008F830C01E
:101DE0000008F808203F200007183F00E01008080E
:101DF0000810E0000F10202020100F0008F808083D
:101E00000808F000203F210101010000E01008084F
:101E10000810E0000F18242438504F0008F8888874
:101E200088887000203F2000030C30200070880854
:101E3000080838000038202121221C00180808F862
:101E4000080818000000203F2000000008F80800E3
:101E50000008F808001F202020201F0008788800B4
:101E600000C83808000007380E010000F80800F824
:101E70000008F800033C0700073C030008186880CE
:101E80008068180820302C03032C30200838C80044
:101E9000C83808000000203F200000001008080893
:101EA000C83808002038262120201800000000FE35
:101EB000020202000000007F40404000000C30C0E1
:101EC00000000000000000010638C000000202020D
:101ED000FE000000004040407F00000000000402BF
:101EE00002020400000000000000000000000000EA
:101EF00000000000808080808080808000020204DA
:101F000000000000000000000000000000008080D1
:101F1000808000000019242222223F2008F800803F
:101F200080000000003F112020110E000000008002
:101F300080800000000E1120202011000000008091
:101F40008088F800000E112020103F2000008080C3
:101F500080800000001F222222221300008080F0D7
:101F6000888888180020203F202000000000808002
:101F700080808000006B94949493600008F8008047
:101F800080800000203F210000203F2000809898A2
:101F9000000000000020203F202000000000008002
:101FA0009898000000C08080807F000008F8000042
:101FB00080808000203F24022D302000000808F897
:101FC000000000000020203F202000008080808052
:101FD00080808000203F20003F20003F80800080E4
:101FE00080800000203F210000203F2000008080F2
:101FF00080800000001F202020201F0080800080A3
:102000008000000080FFA12020110E000000008051
:1020100080808000000E112020A0FF808080800042
:102020008080800020203F2120000100000080806F
:10203000808080000033242424241900008080E064
:10204000808000000000001F202000008080000031
:1020500000808000001F202020103F208080800012
:102060000080808000010E30080601008080008022
:10207000008080800F300C030C300F000080800047
:10208000808080000020312E0E3120008080800072
:102090000080808080818E70180601000080808022
:1020A000808080000021302C2221300000000000C0
:1020B000807C020200000000003F40400000000061
:1020C000FF00000000000000FF0000000002027C92
:1020D000800000000040403F0000000000060101B9
:1020E0000202040400000000000000000C210008AF
:1020F000000000202C000000280100083821000802
:102100002C000020C406000044010008000000006C
:102110000102030401020304060708090204060879
:1021200000A24A04000000000000000001020304B5
:08213000060708090000000089
:040000050800018965
:00000001FF
